S00B00007370692E73726563CD
S11300000C942A000C9434000C9434000C943400A6
S11300100C9434000C9434000C9434000C9434008C
S11300200C9434000C9434000C9434000C9434007C
S11300300C9434000C9434000C9434000C9434006C
S11300400C9434000C9434000C9434000C9434005C
S11300500C94340011241FBECFE5D8E0DEBFCDBF21
S11300600E9442000C9459000C94000087B3806BEA
S113007087BB8DB180658DB908958FB9779BFECF0D
S11300808FB108958FEF8ABB0E943600C0E00EC086
S11300908C2F0E943D008BBB2FE38DE093E0215019
S11300A080409040E1F700C00000CF5FCA3080F389
S10900B0FFCFF894FFCF1E
S9030000FC
