:020000040800F2
:100000000028002085020008D5020008D50200085B
:10001000D5020008D5020008D50200080000000043
:10002000000000000000000000000000D5020008F1
:10003000D502000800000000D5020008D502000823
:10004000D5020008D5020008D5020008D502000834
:10005000D5020008D5020008D5020008D502000824
:10006000D5020008D5020008D5020008D502000814
:10007000D5020008D5020008D5020008D502000804
:10008000D5020008D5020008D5020008D5020008F4
:10009000D5020008D5020008D5020008D5020008E4
:1000A000D5020008D5020008D5020008D5020008D4
:1000B000D5020008D5020008D5020008D5020008C4
:1000C000D5020008D5020008D5020008D5020008B4
:1000D000D5020008D5020008D5020008D5020008A4
:1000E000D5020008D502000800000000D502000873
:1000F000D5020008D5020008D5020008D502000884
:10010000D5020008D5020008D5020008D502000873
:10011000D5020008D5020008D5020008D502000863
:10012000D5020008D5020008D5020008D502000853
:1001300010B5054C237833B9044B13B10448AFF321
:1001400000800123237010BD00000020000000008B
:100150002003000808B5034B1BB103490348AFF364
:10016000008008BD000000000400002020030008FB
:1001700080B400AF044B1B68034A43F00C031360C8
:1001800000BFBD4680BC70471810024080B400AF6D
:10019000134B00221A60134B00221A60124B0022EC
:1001A0001A60124B00221A600E4B1B680D4A43F076
:1001B000400313600A4B1B68094A43F48003136031
:1001C000094B1B68084A43F480131360074B1B68F4
:1001D000064A43F01003136000BFBD4680BC704761
:1001E0000408014000080140040C0140000C0140DB
:1001F00080B485B000AF78600023FB600BE0002383
:10020000BB6002E0BB680133BB60BB68FE2BF9DD5D
:10021000FB680133FB60FA687B689A42EFDB00BF42
:100220001437BD4680BC704780B500AFFFF7A0FF14
:10023000FFF7ACFF114B1B6803F00203002B05D046
:100240000F4B1B680E4A83F00203136000BF0B4B79
:100250001B6803F00203002BF9D1084B1B6803F461
:100260000053002B05D0064B1B68054A83F400534E
:1002700013604FF49670FFF7BBFFDBE708080140FF
:100280000C0C01400D488546AFF300800C480D4929
:100290000D4A002302E0D458C4500433C4188C42E1
:1002A000F9D30A4A0A4C002301E013600432A24247
:1002B000FBD300F011F8FFF7B7FFFEE7002800209E
:1002C0000000002000000020400300080000002083
:1002D0001C000020FEE7000070B500250C4E0D4C00
:1002E000A41BA410A54209D100F01AF800250A4E5B
:1002F0000A4CA41BA410A54205D170BD56F82530A8
:1003000098470135EEE756F8253098470135F2E772
:100310003803000838030008380300083C030008CD
:10032000F8B500BFF8BC08BC9E467047F8B500BFE2
:08033000F8BC08BC9E467047B2
:040338005501000863
:04033C003101000883
:040000050800028568
:00000001FF
