S01700004763634170706C69636174696F6E312E737265635B
S11300000C942A000C9434000C9434000C943400A6
S11300100C9434000C9434000C9434000C9434008C
S11300200C9434000C9434000C9434000C9434007C
S11300300C9434000C9434000C9434000C9434006C
S11300400C9434000C9434000C9434000C9434005C
S11300500C94340011241FBECFE5D8E0DEBFCDBF21
S11300600E9436000C9480000C94000081B392B37B
S1130070806F92BB81BB81B392B3887F92BB81BBFB
S113008020E030E044E050E002C020E030E080B303
S113009091B380FFFCCF80B391B380FDFCCF2330BC
S11300A031059CF42F5F3F4F4F5F5F4F62B373B3D3
S11300B081E090E0042E02C0880F991F0A94E2F7B1
S11300C0862B972B93BB82BBE2CF23303105FCF206
S11300D062B373B381E090E0042E02C0880F991FCD
S11300E00A94E2F7809590958623972393BB82BB6D
S11300F02F5F3F4F415051092630310541F6C5CF9E
S1070100F894FFCF9D
S9030000FC
