:100000000C946F000C9484000C9484000C94840075
:100010000C9484000C9484000C9484000C94840050
:100020000C9484000C9484000C9484000C94840040
:100030000C9484000C9484000C9484000C94840030
:100040000C9484000C9484000C9484000C94840020
:100050000C9484002D022302620228026202320202
:100060006202620262026202620262026202620270
:1000700062026202620262026202370262021A02D3
:100080006202620262026202620262026202620250
:100090006202620262026202620262026202620240
:1000A0006202620262026202620262026202620230
:1000B0006202620262026202620262026202620220
:1000C0006202620262026202620262026202620210
:1000D0006202620262026202620262020C02112485
:1000E0001FBECFE5D8E0DEBFCDBF10E0A0E6B0E098
:1000F000E8E7F5E002C005900D92A636B107D9F702
:100100000E94F5010C94BA020C94000081B392B3E2
:100110008F6092BB81BB81B392B38F7092BB81BB66
:1001200013BA12BA089560E070E07EC083ED90E3E8
:100130000197F1F700C0000013BA12BA22B333B32B
:1001400081E090E0062E02C0880F991F0A94E2F722
:10015000822B932B93BB82BB40E050E05FC080B307
:1001600091B321E030E0042E02C0220F331F0A9425
:10017000E2F722953295307F3227207F3227822383
:100180009323892B09F448C080B391B3822393232E
:10019000892BD1F761307105C9F024F4611571051F
:1001A00041F03AC062307105F1F06330710541F100
:1001B00033C041155105F1F141305105E9F14230AB
:1001C0005105E1F14330510539F53AC0411551056A
:1001D000C9F141305105C1F142305105B9F1433007
:1001E0005105D1F435C041155105A1F141305105FA
:1001F00099F14230510591F14330510569F430C015
:100200004115510579F14130510571F142305105E7
:1002100069F14330510561F14F5F5F4F4430510543
:100220000CF49DCF6F5F7F4F643071050CF47ECF6F
:100230008EE6089587E3089588E3089589E3089595
:100240008FE2089584E3089585E3089586E3089591
:100250008AE2089581E3089582E3089583E308958F
:100260008DE208958FE3089580E308958DE3089566
:100270008BE208958BB39CB384609CBB8BBB83EDF6
:1002800090E30197F1F700C000008BB39CB38B7F24
:100290009CBB8BBB089590E099BB88BB8BB39CB390
:1002A0008D7F9CBB8BBB8BB39CB38E7F9CBB8BBB6E
:1002B0000E943A010895811107C0603188F480E8F6
:1002C000860F0E944B010895813039F4603140F46B
:1002D00080EC860F0E944B01089580E80E944B013C
:1002E000089590E099BB88BB8BB39CB320E2822732
:1002F0009CBB8BBB8BB39CB38D7F9CBB8BBB8BB3ED
:100300009CB381609CBB8BBB0E943A010895CF9344
:10031000DF93EC0103C021960E9471018881811155
:10032000FACFDF91CF9108950F931F93CF93DF936F
:10033000CDB7DEB7C456D1090FB6F894DEBF0FBEF5
:10034000CDBF00E010E013C06AE070E00E948C02B4
:10035000F801EE0FFF1F21E030E02C0F3D1FE20FF0
:10036000F31F91838083862F972F0F5F1F4F009776
:1003700059F70FC001501109F801EE0FFF1F81E07E
:1003800090E08C0F9D1FE80FF91F8081805D0E9417
:1003900071011016110674F3CC59DF4F0FB6F894A3
:1003A000DEBF0FBECDBFDF91CF911F910F9108959A
:1003B00087EA91E60197F1F700C000008FEF90E027
:1003C0009BBB8ABB98BB87BB8BB39CB3887F9CBB12
:1003D0008BBB0E943A018FE00E944B0188E30E9490
:1003E0004B0180E80E944B0108950E94D8010E94B1
:1003F000860065E080E00E945B0180E690E00E945C
:10040000870181E00E944B01E12CF12CA12CB12C41
:10041000C0E0D0E000E010E00E949300D82E90E011
:10042000FC01BA97E534F10508F04CC0E65DFF4FDA
:100430000C94A00281E00E944B01A12CB12CC0E0E1
:10044000D0E010E0E9CF0E9471010D2D11E0E4CF62
:100450000E9471010D2D11E0DFCF0E9471010D2D61
:1004600011E0DACF0E9471010D2D11E0D5CF60E0CF
:1004700081E00E945B018D2D0E9471010B3249F0D9
:1004800018F40A3271F01AC00D3239F00F3289F0C7
:1004900015C07E01EA0CFB1C11C07E01EA18FB08A6
:1004A0000DC0CA9D7001CB9DF00CDA9DF00C11249B
:1004B00005C0CE01B5010E948C027B01C7010E94DC
:1004C0009401AACF8D2D0E94710111110FC0CE0190
:1004D000880F991FCC0FDD1FCC0FDD1FCC0FDD1F48
:1004E000C80FD91FCD0DD11DE09796CF113009F05F
:1004F00093CFC501880F991F9501220F331F220F3B
:10050000331F220F331F820F931F8D0D911D5C012E
:1005100020E3A21AB10880CF97FB072E16F40094AF
:1005200007D077FD09D00E94A60207FC05D03EF453
:10053000909581959F4F0895709561957F4F08958F
:10054000EE0FFF1F0590F491E02D0994AA1BBB1B31
:1005500051E107C0AA1FBB1FA617B70710F0A61BC3
:10056000B70B881F991F5A95A9F780959095BC01E4
:08057000CD010895F894FFCFBE
:0605780068656C6C6F0069
:00000001FF
