S01700004763634170706C69636174696F6E312E737265635B
S11300000C942A000C9434000C9434000C943400A6
S11300100C9434000C9434000C9434000C9434008C
S11300200C9434000C9434000C9434000C9434007C
S11300300C9434000C9434000C9434000C9434006C
S11300400C9434000C9434000C9434000C9434005C
S11300500C94340011241FBECFE5D8E0DEBFCDBF21
S11300600E9453000C9472000C9400008AB39BB35A
S113007083609BBB8ABB87B398B38C7F98BB87BBD9
S1130080089540E050E00BC02F5F3F4F02C020E0D6
S113009030E0253F61E03607BCF34F5F5F4F8417C4
S11300A09507ACF708950E94360086B397B380FF96
S11300B006C08BB39CB321E082279CBB8BBB86B369
S11300C097B380FDFCCF86B397B381FF06C08BB393
S11300D09CB322E082279CBB8BBB8AE090E00E9409
S10B00E04100E3CFF894FFCFC7
S9030000FC
