:100000000C942A000C9447000C9447000C94470071
:100010000C9447000C9447000C9447000C94470044
:100020000C9447000C9447000C9447000C94470034
:100030000C9447000C94EA000C9447000C94470081
:100040000C9447000C9447000C9447000C94470014
:100050000C94470011241FBECFE5D8E0DEBFCDBF12
:1000600010E0A0E6B0E0E2E2F2E002C005900D92FE
:10007000AE36B107D9F720E0AEE6B0E001C01D9280
:10008000A33DB207E1F70E94C9000C940F010C9444
:1000900000008BB380648BBB83ED90E30197F1F795
:1000A00000C000008BB38F7B8BBB089588BB8BB3E4
:1000B0008F7D8BBB8BB38F7E8BBB0E9449000895D5
:1000C00088BB9BB380E289278BBB8BB38F7D8BBBB7
:1000D0008BB380618BBB0E9449000895CF93DF935F
:1000E000EC0103C021960E94600088818111FACF43
:1000F000DF91CF91089587EA91E60197F1F700C06B
:1001000000008FEF8ABB87BB8BB38F788BBB0E94BD
:1001100049008FE00E94560088E30E94560080E864
:100120000E945600089583E389B98AB188698AB923
:100130000895FC0104C05D9B02C031969CB990817A
:100140009111F9CF08958D30A1F481E00E945600FD
:10015000E0916E00F0E0E159FF4F108210926E00C6
:100160008FE690E00E946E008FE690E00E9499007A
:100170000895E0916E0091E09E0F90936E00F0E084
:10018000E159FF4F808385BB08958FB780688FBF8B
:1001900008950E94C5008FE087BB8FEF84BB0E944B
:1001A00093000E947B0080E690E00E94990080E02E
:1001B00091E0980F8BBB9A3011F0892F01C080E03D
:1001C0002FE936E891E0215030409040E1F700C03F
:1001D0000000EECF1F920F920FB60F9211242F93B3
:1001E0003F934F935F936F937F938F939F93AF93BF
:1001F000BF93EF93FF938CB10E94A300FF91EF9107
:10020000BF91AF919F918F917F916F915F914F912E
:100210003F912F910F900FBE0F901F901895F8945B
:02022000FFCF0E
:0E0222006D6F68616D65642061796D616E00BD
:00000001FF
