S0130000756C7472615F736F6E69632E737265636E
S11300000C9434000C9449000C9449000C9449005D
S11300100C9449000C9449000C9449000C94490038
S11300200C9449000C9449000C9449000C94490028
S11300300C9449000C9449000C9449000C94490018
S11300400C9449000C9449000C9449000C94490008
S11300500C9449000C9449000C9449000C944900F8
S11300600C9449000C94490011241FBECFEFD8E032
S1130070DEBFCDBF11E0A0E0B1E0E6E9F5E002C0EB
S113008005900D92AE30B107D9F70E9457010C9438
S1130090C9020C94000085B1816085B98FE097E2B4
S11300A00197F1F700C0000085B18E7F85B90895EE
S11300B0CF93C82F8BB18F709C2F907F892B8BB9D6
S11300C085B18D7F85B985B18B7F85B90E944B0041
S11300D02BB130E1C39FC0011124922F9F70892B53
S11300E08BB985B18D7F85B985B18B7F85B90E9428
S11300F04B00CF910895811107C0603188F480E8E6
S1130100860F0E9458000895813039F4603140F41C
S113011080EC860F0E945800089580E80E945800E1
S11301200895CF93C82F8BB18F709C2F907F892B0C
S11301308BB985B18D7F85B985B1846085B90E94FD
S11301404B002BB130E1C39FC0011124922F9F704B
S1130150892B8BB985B18D7F85B985B1846085B9CB
S11301600E944B00CF910895CF93DF93EC0103C01D
S113017021960E94910088818111FACFDF91CF915D
S1130180089581E00E94580008951F93CF93DF9350
S1130190CDB7DEB7A8970FB6F894DEBF0FBECDBFBC
S11301A0FE01319628E2DF011D922A95E9F710E05D
S11301B012C02AE030E040E050E00E94A702E1E0F3
S11301C0F0E0EC0FFD1FE10FF11D6083622F732F30
S11301D0842F952F1F5F611571058105910549F7DE
S11301E00BC01150E1E0F0E0EC0FFD1FE10FF11D39
S11301F08081805D0E9491001111F3CFA8960FB603
S1130200F894DEBF0FBECDBFDF91CF911F9108954B
S113021087EA91E60197F1F700C000008FEF8AB9F1
S113022084B985B1887F85B90E944B0082E00E9421
S113023058008EE00E94580088E20E94580080E82E
S11302400E94580008958AB188608AB98AB18B7F68
S11302508AB908958BB188608BB985E38A95F1F7E3
S113026000008BB1877F8BB94A9BFECF109285002B
S1130270109284004A99FECF6091840070918500A9
S113028080E090E00E9419022DEC3CE349E654E43E
S11302900E9478010E94EA010895E1E8F0E080817B
S11302A081608083109285001092840008950E94DA
S11302B008010E9423010E944D010E94C10080E0B8
S11302C091E00E94B40060E081E00E947B000E9403
S11302D02A010E94C50080E20E9491002FEF81EE66
S11302E094E0215080409040E1F700C00000EBCF43
S11302F00E948C010C946D020E94660258F00E94C8
S11303005F0240F029F45F3F29F00C94560251112A
S11303100C94A1020C945C020E947E0268F399235F
S1130320B1F3552391F3951B550BBB27AA276217ED
S11303307307840738F09F5F5F4F220F331F441FFA
S1130340AA1FA9F335D00E2E3AF0E0E832D091502E
S11303505040E695001CCAF72BD0FE2F29D0660F1B
S1130360771F881FBB1F261737074807AB07B0E85E
S113037009F0BB0B802DBF01FF2793585F4F3AF064
S11303809E3F510578F00C9456020C94A1025F3FF5
S1130390E4F3983ED4F3869577956795B795F795EA
S11303A09F5FC9F7880F911D9695879597F90895D2
S11303B0E1E0660F771F881FBB1F6217730784076E
S11303C0BA0720F0621B730B840BBA0BEE1F88F77D
S11303D0E09508950E94860288F09F5798F0B92FFF
S11303E09927B751B0F0E1F0660F771F881F991F66
S11303F01AF0BA95C9F714C0B13091F00E94A00266
S1130400B1E008950C94A002672F782F8827B85F75
S113041039F0B93FCCF3869577956795B395D9F7BD
S11304203EF490958095709561957F4F8F4F9F4FC7
S11304300895E89409C097FB3EF4909580957095D3
S113044061957F4F8F4F9F4F9923A9F0F92F96E91C
S1130450BB279395F695879577956795B795F11191
S1130460F8CFFAF4BB0F11F460FF1BC06F5F7F4F2E
S11304708F4F9F4F16C0882311F096E911C0772340
S113048021F09EE8872F762F05C0662371F096E849
S1130490862F70E060E02AF09A95660F771F881F18
S11304A0DAF7880F9695879597F9089597F99F67D6
S11304B080E870E060E008959FEF80EC08950024E8
S11304C00A941616170618060906089500240A94B5
S11304D012161306140605060895092E0394000C3B
S11304E011F4882352F0BB0F40F4BF2B11F460FFCA
S11304F004C06F5F7F4F8F4F9F4F089557FD9058F3
S1130500440F551F59F05F3F71F04795880F97FBD3
S1130510991F61F09F3F79F087950895121613068D
S11305201406551FF2CF4695F1DF08C016161706BC
S11305301806991FF1CF86957105610508940895F1
S1130540E894BB2766277727CB0197F90895A1E2A2
S11305501A2EAA1BBB1BFD010DC0AA1FBB1FEE1F39
S1130560FF1FA217B307E407F50720F0A21BB30B84
S1130570E40BF50B661F771F881F991F1A9469F700
S113058060957095809590959B01AC01BD01CF015C
S10905900895F894FFCF6A
S111059664697374616E63653A28636D2900AD
S9030000FC
