:100000000C9434000C9446000C9446000C9446006A
:100010000C9446000C9446000C9446000C94460048
:100020000C9446000C9446000C9446000C94DC00A2
:100030000C9446000C9403010C9446000C9446006A
:100040000C9446000C9446000C9446000C94460018
:100050000C9446000C9446000C9446000C94460008
:100060000C9446000C94460011241FBECFEFD8E03C
:10007000DEBFCDBF21E0A0E0B1E001C01D92A630FF
:10008000B207E1F70E946E000C9432010C9400005C
:1000900095B181E0892785B90895CF93DF9300D08A
:1000A00000D0CDB7DEB7198285E08A8381E08B83EB
:1000B0001C8289E09DE30E94D10088E490E0909347
:1000C000010180930001CE0101960E9473000F9000
:1000D0000F900F900F90DF91CF9108958FEF84B91B
:1000E0000E944D00FFCFFC0178948081811106C0F1
:1000F000A1E8B0E08C91877F8C9307C0813029F410
:10010000A1E8B0E08C9188608C938181811105C059
:10011000A1E8B0E08C918C9327C0813031F4A1E844
:10012000B0E08C9181608C931FC0823031F4A1E8E3
:10013000B0E08C9182608C9317C0833031F4A1E8D9
:10014000B0E08C9183608C930FC0843031F4A1E8CF
:10015000B0E08C9184608C9307C0853029F4A1E8CD
:10016000B0E08C9185608C938281813031F4AFE670
:10017000B0E08C9181608C9305C0AFE6B0E08C91CB
:100180008E7F8C938381813031F4EFE6F0E08081C3
:10019000826080830895EFE6F0E080818D7F808328
:1001A0000895809590959093050180930401909314
:1001B00085008093840008951F920F920FB60F92CE
:1001C00011242F933F934F935F936F937F938F935C
:1001D0009F93AF93BF93EF93FF93E0910201F09150
:1001E00003010995FF91EF91BF91AF919F918F917D
:1001F0007F916F915F914F913F912F910F900FBE23
:100200000F901F9018951F920F920FB60F92112406
:100210002F933F934F935F936F937F938F939F930E
:10022000AF93BF93EF93FF93E0910001F091010131
:100230000995809104019091050190938500809328
:100240008400FF91EF91BF91AF919F918F917F912A
:100250006F915F914F913F912F910F900FBE0F9033
:080260001F901895F894FFCFE0
:00000001FF
