S01700006E756D6272696E675F73797374656D2E73726563A7
S11300000C9449000C945E000C945E000C945E0009
S11300100C945E000C945E000C945E000C945E00E4
S11300200C945E000C945E000C945E000C945E00D4
S11300300C945E000C945E000C945E000C945E00C4
S11300400C945E000C945E000C945E000C945E00B4
S11300500C945E00DE040005230546056C058F053F
S1130060B205D905FC051F06150715071507150761
S1130070150715071507420665068806AB06CE0662
S1130080F1068407A107BF07DD07FE071C083A082D
S1130090580811241FBECFE5D8E0DEBFCDBF10E065
S11300A0A0E6B0E0ECEFF1E102C005900D92A63DB0
S11300B0B107D9F70E94B8030C94FC080C94000013
S11300C084B38F6084BB84B38F7084BB15BA0895E6
S11300D060E070E07DC015BA25B381E090E0062EA3
S11300E002C0880F991F0A94E2F7822B85BB2FEF79
S11300F080E792E0215080409040E1F700C000008A
S113010040E050E05FC083B321E030E0042E02C041
S1130110220F331F0A94E2F722953295307F32275B
S1130120207F322790E082239323892B09F448C04F
S113013083B390E082239323892BD1F76130710537
S1130140C9F024F46115710541F03AC062307105BB
S1130150F1F06330710541F133C041155105F1F1FE
S113016041305105E9F142305105E1F14330510587
S113017039F53AC041155105C9F141305105C1F174
S113018042305105B9F143305105D1F435C0411520
S11301905105A1F14130510599F14230510591F1D8
S11301A04330510569F430C04115510579F14130AE
S11301B0510571F14230510569F14330510561F146
S11301C04F5F5F4F443051050CF49DCF6F5F7F4FFD
S11301D0643071050CF47FCF8EE4089587E30895AD
S11301E088E3089589E3089581E4089584E30895F4
S11301F085E3089586E3089582E4089581E30895EC
S113020082E3089583E3089583E4089585E40895DB
S113021080E308958DE3089584E408958BB38160A9
S11302208BBB2FEF89EF90E0215080409040E1F7A5
S113023000C000008BB38E7F8BBB0895CF93C82F73
S11302408BB38F709C2F907F892B8BBB8BB38D7F4F
S11302508BBB8BB38B7F8BBB0E940E012BB330E126
S1130260C39FC0011124922F9F70892B8BBB8BB32A
S11302708D7F8BBB8BB38B7F8BBB0E940E01CF9189
S11302800895811107C0603188F480E8860F0E94C8
S11302901E010895813039F4603140F480EC860FFA
S11302A00E941E01089580E80E941E010895CF93C4
S11302B0C82F8BB38F709C2F907F892B8BBB8BB3F4
S11302C08D7F8BBB8BB384608BBB0E940E012BB3E1
S11302D030E1C39FC0011124922F9F70892B8BBBE7
S11302E08BB38D7F8BBB8BB384608BBB0E940E0161
S11302F0CF910895CF93DF93EC0103C021960E9420
S1130300570188818111FACFDF91CF91089581E05F
S11303100E941E0108952FEF81EE94E02150804049
S11303209040E1F700C000008FEF8ABB8BB3887F59
S11303308BBB0E940E0182E00E941E018EE00E948F
S11303401E0188E20E941E0180E80E941E01089599
S11303501F93CF93DF93CDB7DEB7A8970FB6F8946A
S1130360DEBF0FBECDBFFE01319628E2DF011D9234
S11303702A95E9F76115710581059105B9F480E3C2
S11303800E94570127C02AE030E040E050E00E947C
S1130390BA08E1E0F0E0EC0FFD1FE10FF11D60830E
S11303A0622F732F842F952F1F5F01C010E06115FA
S11303B071058105910539F70BC01150E1E0F0E0BA
S11303C0EC0FFD1FE10FF11D8081805D0E9457013C
S11303D01111F3CFA8960FB6F894DEBF0FBECDBFB0
S11303E0DF91CF911F910895E82F20E030E061E084
S11303F070E080E090E006C0660F771F881F991FA9
S11304002F5F3F4F4E2F50E024173507ACF308956C
S11304108F929F92AF92BF92FF920F931F93CF93AD
S1130420DF93CDB7DEB7CE55D1090FB6F894DEBF52
S11304300FBECDBF4B015C01FE01319680E2DF01AE
S11304401D928A95E9F70E9487012FE130E0F12C93
S113045037C081149104A104B10421F480E30E9403
S1130460570130C081E090E0022E02C0880F991F2E
S11304700A94E2F7092E000CAA0BBB0B88219921E0
S1130480AA21BB210097A105B10509F031E0313063
S1130490B1F4892B8A2B8B2B49F4E1E0F0E0EC0FCB
S11304A0FD1FEF0DF11D1082F39409C0E1E0F0E0AF
S11304B0EC0FFD1FEF0DF11D81E08083F3942150BB
S11304C022233CF6FE01B19680E2DF011D928A955B
S11304D0E9F7BF2C01C0B3948B2D8370E1F72B2D6A
S11304E02F1908C0E1E2F0E0EC0FFD1FE80FF11D49
S11304F010828F5F8217B0F3322F12C0FC01E21B0F
S1130500F10941E050E04C0F5D1FE40FF51F4081FD
S1130510E1E2F0E0EC0FFD1FE80FF91F40833F5FBD
S1130520832F032E000C990B0B2D10E080179107DD
S11305302CF3AA24A39414C0EA2DF0E0319761E2CD
S113054070E06C0F7D1FE60FF71F8081805D0E94B5
S113055057018A2D837019F480E20E945701A394F5
S1130560BA1450F760E081E00E94410185E790E011
S11305700E947A017FEF8FE493EC715080409040A9
S1130580E1F700C000000E948701B12C50C0E1E2F5
S1130590F0E0EC0FFD1FE80FF91F2081FC013196FC
S11305A0A1E2B0E0AC0FBD1FEA0FFB1F408130E0B9
S11305B0220F331F240F311DFC013296EA0FFB1F5B
S11305C04081220F331F240F311D0396FD01E80FD4
S11305D0F91F8081220F820F8C30A1F028F48A3019
S11305E049F08B3059F01EC08E30A1F078F08F3076
S11305F0A9F018C081E40E94570117C082E40E9448
S1130600570113C083E40E9457010FC084E40E9481
S113061057010BC085E40E94570107C086E40E947D
S1130620570103C0805D0E945701B4E0BB0E8B2DBF
S11306300B2C000C990B801791070CF4A8CF60E0E9
S113064081E00E94410180E690E00E947A012FEF50
S11306504FE453EC215040405040E1F700C000000B
S11306600E9487012F2D01C02F5F8BEA289F812DC7
S113067011248695982F990F890F2813F5CF322FBF
S11306803F1980E008C0E1E4F0E0EC0FFD1FE80F43
S1130690F11D10828F5F8317B0F3432F12C0FC014A
S11306A0E31BF10961E070E06C0F7D1FE60FF71F9B
S11306B05081E1E4F0E0EC0FFD1FE80FF91F5083D7
S11306C04F5F842F042E000C990B022F10E080172B
S11306D091072CF3F12C21C0E1E4F0E0EC0FFD1FB5
S11306E0E80FF91F2081FC013196A1E4B0E0AC0FC2
S11306F0BD1FEA0FFB1F408130E0220F331F240F80
S1130700311D0296FD01E80FF91F8081220F820F2F
S1130710805D0E945701B3E0FB0E8F2D0F2C000C5F
S1130720990B80179107C4F260E081E00E944101B7
S113073084E690E00E947A012FEF4FE453EC2150BD
S113074040405040E1F700C000000E948701C25AB7
S1130750DF4F0FB6F894DEBF0FBECDBFDF91CF9150
S11307601F910F91FF90BF90AF909F908F9008952D
S1130770CF93DF93CDB7DEB7A0970FB6F894DEBF63
S11307800FBECDBF0E948B010E9460000E948701B2
S11307908EE00E941E0188E690E00E947A0183E7C1
S11307A090E00E947A0160E081E00E94410189E7C3
S11307B090E00E947A0184E890E00E947A018CE043
S11307C00E941E0100E011E018C00E9468008233FC
S11307D049F018F4813379F010C0833331F0843355
S11307E039F00BC002E010E008C003E010E005C0DF
S11307F004E010E002C001E010E01111E6CF013086
S1130800E1F50E9487018AE890E00E947A0160E0A5
S113081081E00E944101C12CD12C76012BC00E94A1
S11308206800182F8D3319F08E3421F106C0C701EA
S1130830B6010E94080200E01DC00E945701CC0CC2
S1130840DD1CEE1CFF1CD701C601880F991FAA1FCF
S1130850BB1F880F991FAA1FBB1FC80ED91EEA1EF3
S1130860FB1EC10ED11CE11CF11C20E3C21AD108ED
S1130870E108F1080111D3CF89CF023009F072C029
S1130880FE01319680E2DF011D928A95E9F70E940C
S113089087018CE990E00E947A0160E081E00E9487
S11308A0410100E0B12CFF24F39418C00E946800B9
S11308B0182F803398F0823318F08D3371F00EC006
S11308C00E945701E1E0F0E0EC0FFD1FEB0DF11D7C
S11308D0105310830F5FB39401C0F12CF110E6CFD5
S11308E010E0C12CD12C760116C0E1E0F0E0EC0F51
S11308F0FD1FE80FF91FA0800150802F0E94F40112
S11309009B01AC01AA2DB0E00E94E208C60ED71EDE
S1130910E81EF91E1F5F812F012E000C990B2B2D51
S113092030E0821793070CF30E948701C701B601D8
S11309300E94A80160E081E00E9441018EEA90E0FB
S11309400E947A01BFEF2FE433ECB15020403040D5
S1130950E1F700C000000E948701C701B6010E94B0
S1130960080214CF033009F0A3C2FE01319680E2DD
S1130970DF011D928A95E9F70E94870182EB90E0DE
S11309800E947A0160E081E00E94410110E0B12CF4
S113099001E04BC20E9468008D3309F445C28E34D5
S11309A009F443C2482F50E0FA01F097E731F1050A
S11309B008F03BC2E65DFF4F0C94DC080E9457012F
S11309C08B2D90E0E1E0F0E0EC0FFD1FE80FF91F44
S11309D01082FC01319621E030E02C0F3D1FE20F24
S11309E0F31F1082FC013296E20FF31F108203966C
S11309F0F901E80FF91F108234E0B30E1C5F15C231
S1130A000E9457018B2D90E0E1E0F0E0EC0FFD1F18
S1130A10E80FF91F1082FC01319641E050E04C0FC1
S1130A205D1FE40FF51F1082FC013296E40FF51FE1
S1130A3010820396FA01E80FF91F81E0808354E0E5
S1130A40B50E1C5FF2C10E9457018B2D90E0E1E0CE
S1130A50F0E0EC0FFD1FE80FF91F1082FC01319646
S1130A60A1E0B0E0AC0FBD1FEA0FFB1F1082FC0138
S1130A703296EA0FFB1F21E020830396FD01E80F65
S1130A80F91F1082B4E0BB0E1C5FCFC10E94570156
S1130A908B2D90E0E1E0F0E0EC0FFD1FE80FF91F73
S1130AA01082FC01319621E030E02C0F3D1FE20F53
S1130AB0F31F1082FC013296E20FF31F21E0208322
S1130AC00396E1E0F0E0EC0FFD1FE80FF91F20832F
S1130AD034E0B30E1C5FA9C10E9457018B2D90E036
S1130AE0E1E0F0E0EC0FFD1FE80FF91F1082FC01BC
S1130AF0319641E050E04C0F5D1FE40FF51F21E0FB
S1130B002083FC013296E40FF51F10820396FA014C
S1130B10E80FF91F108254E0B50E1C5F86C10E94D5
S1130B2057018B2D90E0E1E0F0E0EC0FFD1FE80FA2
S1130B30F91F1082FC013196A1E0B0E0AC0FBD1F9B
S1130B40EA0FFB1F21E02083FC013296EA0FFB1F12
S1130B5010820396FD01E80FF91F2083B4E0BB0E59
S1130B601C5F63C10E9457018B2D90E0E1E0F0E02F
S1130B70EC0FFD1FE80FF91F1082FC01319621E0F4
S1130B8030E02C0F3D1FE20FF31F21E02083FC0116
S1130B90329641E050E04C0F5D1FE40FF51F2083B7
S1130BA00396FA01E80FF91F108254E0B50E1C5F9A
S1130BB03CC10E9457018B2D90E0E1E0F0E0EC0F86
S1130BC0FD1FE80FF91F1082FC013196A1E0B0E08F
S1130BD0AC0FBD1FEA0FFB1F21E02083FC013296FE
S1130BE0EA0FFB1F20830396FD01E80FF91F208302
S1130BF0B4E0BB0E1C5F19C10E9457018B2D90E01D
S1130C00E1E0F0E0EC0FFD1FE80FF91F21E0208385
S1130C10FC01319621E030E02C0F3D1FE20FF31F61
S1130C201082FC013296E20FF31F10820396F90141
S1130C30E80FF91F108234E0B30E1C5FF6C00E9467
S1130C4057018B2D90E0E1E0F0E0EC0FFD1FE80F81
S1130C50F91F21E02083FC01319641E050E04C0F64
S1130C605D1FE40FF51F1082FC013296E40FF51F9F
S1130C7010820396FA01E80FF91F208354E0B50EA1
S1130C801C5FD3C00E9457018B2D90E0E1E0F0E09F
S1130C90EC0FFD1FE80FF91F21E02083FC013196C2
S1130CA0A1E0B0E0AC0FBD1FEA0FFB1F1082FC01F6
S1130CB03296EA0FFB1F20830396FD01E80FF91F0C
S1130CC01082B4E0BB0E1C5FB0C00E9457018B2D94
S1130CD090E0E1E0F0E0EC0FFD1FE80FF91F21E0E8
S1130CE02083FC01319641E050E04C0F5D1FE40F7E
S1130CF0F51F1082FC013296E40FF51F2083039642
S1130D00FA01E80FF91F208354E0B50E1C5F8DC073
S1130D100E9457018B2D90E0E1E0F0E0EC0FFD1F05
S1130D20E80FF91F21E02083FC013196A1E0B0E037
S1130D30AC0FBD1FEA0FFB1F2083FC013296EA0FA4
S1130D40FB1F10820396FD01E80FF91F1082B4E027
S1130D50BB0E1C5F6AC00E9457018B2D90E0E1E03E
S1130D60F0E0EC0FFD1FE80FF91F21E02083FC01E8
S1130D70319641E050E04C0F5D1FE40FF51F2083D6
S1130D80FC013296E40FF51F10820396FA01E80F76
S1130D90F91F208354E0B50E1C5F47C00E94570121
S1130DA08B2D90E0E1E0F0E0EC0FFD1FE80FF91F60
S1130DB021E02083FC013196A1E0B0E0AC0FBD1F1F
S1130DC0EA0FFB1F2083FC013296EA0FFB1F2083EE
S1130DD00396FD01E80FF91F1082B4E0BB0E1C5FFF
S1130DE024C00E9457018B2D90E0E1E0F0E0EC0F6D
S1130DF0FD1FE80FF91F21E02083FC01319641E03B
S1130E0050E04C0F5D1FE40FF51F2083FC01329668
S1130E10E40FF51F20830396FA01E80FF91F2083DE
S1130E2054E0B50E1C5F01C000E00111B3CDC12C2C
S1130E30D12C760116C0E1E0F0E0EC0FFD1FE80FC5
S1130E40F91FA0801150812F0E94F4019B01AC0175
S1130E50AA2DB0E00E94E208C60ED71EE81EF91EB5
S1130E600F5F802F002E000C990B2B2D30E0821782
S1130E7093070CF30E948701C701B6010E94A801E1
S1130E8060E081E00E9441018EEA90E00E947A01D4
S1130E908FEF9FE4A3EC81509040A040E1F700C0A5
S1130EA000000E948701C701B6010E9408026ECCAF
S1130EB0043009F06BCCFE01319680E2DF011D9213
S1130EC08A95E9F70E94870184EC90E00E947A01F8
S1130ED060E081E00E94410110E0B12C01E007C113
S1130EE00E9468008D3309F401C18E3409F4FFC0F7
S1130EF0482F50E0FA01F097E830F10508F0F7C008
S1130F00EF5BFF4F0C94DC080E9457018B2D90E09F
S1130F10E1E0F0E0EC0FFD1FE80FF91F1082FC0187
S1130F20319621E030E02C0F3D1FE20FF31F1082B9
S1130F300296F901E80FF91F108233E0B30E1D5F2A
S1130F40D6C00E9457018B2D90E0E1E0F0E0EC0F59
S1130F50FD1FE80FF91F1082FC01319641E050E0BB
S1130F604C0F5D1FE40FF51F10820296FA01E80F83
S1130F70F91F81E0808353E0B50E1D5FB8C00E9465
S1130F8057018B2D90E0E1E0F0E0EC0FFD1FE80F3E
S1130F90F91F1082FC013196A1E0B0E0AC0FBD1F37
S1130FA0EA0FFB1F21E020830296FD01E80FF91FE1
S1130FB01082B3E0BB0E1D5F9AC00E9457018B2DB7
S1130FC090E0E1E0F0E0EC0FFD1FE80FF91F108264
S1130FD0FC01319621E030E02C0F3D1FE20FF31F9E
S1130FE021E020830296E1E0F0E0EC0FFD1FE80F22
S1130FF0F91F208333E0B30E1D5F79C00E945701AF
S11310008B2D90E0E1E0F0E0EC0FFD1FE80FF91FFD
S113101021E02083FC01319641E050E04C0F5D1F3C
S1131020E40FF51F10820296FA01E80FF91F1082EF
S113103053E0B50E1D5F5BC00E9457018B2D90E0FD
S1131040E1E0F0E0EC0FFD1FE80FF91F21E0208341
S1131050FC013196A1E0B0E0AC0FBD1FEA0FFB1F0D
S113106010820296FD01E80FF91F2083B3E0BB0E46
S11310701D5F3DC00E9457018B2D90E0E1E0F0E040
S1131080EC0FFD1FE80FF91F21E02083FC013196CE
S113109041E050E04C0F5D1FE40FF51F20830296E2
S11310A0FA01E80FF91F108253E0B50E1D5F1FC04F
S11310B00E9457018B2D90E0E1E0F0E0EC0FFD1F62
S11310C0E80FF91F21E02083FC013196A1E0B0E094
S11310D0AC0FBD1FEA0FFB1F20830296FD01E80F32
S11310E0F91F2083B3E0BB0E1D5F01C000E00111B6
S11310F0F7CEC12CD12C760116C0E1E0F0E0EC0F64
S1131100FD1FE80FF91FA0801150812F0E94F401E8
S11311109B01AC01AA2DB0E00E94E208C60ED71EC6
S1131120E81EF91E0F5F802F002E000C990B2B2D4B
S113113030E0821793070CF30E948701C701B601C0
S11311400E94A80160E081E00E9441018EEA90E0E3
S11311500E947A012FEF3FE443EC2150304040409D
S1131160E1F700C000000E948701C701B6010E9498
S113117008020CCBA1E21A2EAA1BBB1BFD010DC059
S1131180AA1FBB1FEE1FFF1FA217B307E407F50733
S113119020F0A21BB30BE40BF50B661F771F881F0F
S11311A0991F1A9469F760957095809590959B01A5
S11311B0AC01BD01CF010895EE0FFF1F0590F4911E
S11311C0E02D09940E94ED08A59F900DB49F900D09
S11311D0A49F800D911D11240895A29FB001B39F77
S11311E0C001A39F700D811D1124911DB29F700D2C
S10F11F0811D1124911D0895F894FFCF77
S11311FC484558006F637400313A4445432020201D
S113120C202000323A42494E00333A4845582020B7
S113121C20202000343A4F435400656E74657220CC
S113122C646563206E756D6265723A00656E7465F3
S113123C722062696E206E756D6265723A00646527
S113124C6300656E74657220686578206E756D62D6
S113125C65723A00656E746572206F6374206E75E6
S109126C6D6265723A0098
S9030000FC
