S00C0000756172742E737265635C
S11300000C942A000C943C000C943C000C943C008E
S11300100C943C000C943C000C943C000C943C006C
S11300200C943C000C943C000C943C000C943C005C
S11300300C943C000C943C000C943C000C943C004C
S11300400C943C000C943C000C943C000C943C003C
S11300500C943C0011241FBECFE5D8E0DEBFCDBF19
S113006020E0A0E6B0E001C01D92A036B207E1F79F
S11300700E946D000C9482000C9400008BB381608C
S11300808BBB83ED90E30197F1F700C000008BB3C5
S11300908E7F8BBB089588BB8BB38D7F8BBB8BB35B
S11300A08B7F8BBB0E943E00089587EA91E60197FF
S11300B0F1F700C000008FEF8ABB87BB8BB3887F4A
S11300C08BBB0E943E008EE00E944B0088E30E949E
S11300D04B0080E80E944B0008950E9455000E9446
S11300E075008CE20E947E00FFCF83E389B98AB158
S11300F088608AB98AB180618AB908955D9BFECF10
S10B01008CB90895F894FFCFB7
S9030000FC
