S00B00006932632E737265631B
S11300000C942A000C9434000C9434000C943400A6
S11300100C9434000C9434000C9434000C9434008C
S11300200C9434000C9434000C9434000C9434007C
S11300300C9434000C9434000C9434000C9434006C
S11300400C9434000C9434000C9434000C9434005C
S11300500C94340011241FBECFE5D8E0DEBFCDBF21
S11300600E9447000C9469000C9400008BEF80B947
S113007011B8089584EA86BF06B607FEFDCF089539
S113008084E986BF089583B984E886BF089588E427
S113009090E00E943600C0E00E943A0080ED0E9489
S11300A0430081B18831E9F7D1E0DC0F8C2F0E9445
S11300B0430081B18832E9F70E9440002FE382E4D3
S11300C09FE0215080409040E1F700C00000CD2F18
S10900D0E3CFF894FFCF1A
S9030000FC
