S00C0000756172742E737265635C
S11300000C942A000C9434000C9434000C943400A6
S11300100C9434000C9434000C9434000C9434008C
S11300200C9434000C9434000C9434000C9434007C
S11300300C9434000C9434000C9434000C9434006C
S11300400C9434000C9434000C9434000C9434005C
S11300500C94340011241FBECFE5D8E0DEBFCDBF21
S11300600E94E7000C94FB000C94000060E070E038
S11300707AC083EC99E00197F1F700C0000018BA48
S113008028B381E090E0062E02C0880F991F0A94DD
S1130090E2F7822B88BB40E050E05FC086B321E0EA
S11300A030E0042E02C0220F331F0A94E2F7229597
S11300B03295307F3227207F322790E082239323AA
S11300C0892B09F448C086B390E082239323892BBB
S11300D0D1F761307105C9F024F46115710541F05F
S11300E03AC062307105F1F06330710541F133C0FB
S11300F041155105F1F141305105E9F14230510505
S1130100E1F14330510539F53AC041155105C9F1C2
S113011041305105C1F142305105B9F14330510527
S1130120D1F435C041155105A1F14130510599F182
S11301304230510591F14330510569F430C0411505
S1130140510579F14130510571F14230510569F1A0
S11301504330510561F14F5F5F4F443051050CF45A
S11301609DCF6F5F7F4F643071050CF482CF8EE4B6
S1130170089587E3089588E3089589E308958FE255
S1130180089584E3089585E3089586E308958AE253
S1130190089581E3089582E3089583E308958DE249
S11301A0089583E6089580E308958DE308958BE22E
S11301B0089583E389B98AB188618AB908955D9BFA
S11301C0FECF8CB908955F9BFECF8CB108958FE06C
S11301D087BB8FEF84BB0E94D9000E9436008E3407
S11301E0E1F3833629F40E94E300805385BBF5CF05
S10D01F00E94DF00F2CFF894FFCF65
S9030000FC
