:020000040800F2
:100000000028002059020008A9020008A9020008DF
:10001000A9020008A9020008A902000800000000C7
:10002000000000000000000000000000A90200081D
:10003000A902000800000000A9020008A9020008A7
:10004000A9020008A9020008A9020008A9020008E4
:10005000A9020008A90200082D020008A902000850
:10006000A9020008A9020008A9020008A9020008C4
:10007000A9020008A9020008A9020008A9020008B4
:10008000A9020008A9020008A9020008A9020008A4
:10009000A9020008A9020008A9020008A902000894
:1000A000A9020008A9020008A9020008A902000884
:1000B000A9020008A9020008A9020008A902000874
:1000C000A9020008A9020008A9020008A902000864
:1000D000A9020008A9020008A9020008A902000854
:1000E000A9020008A902000800000000A9020008F7
:1000F000A9020008A9020008A9020008A902000834
:10010000A9020008A9020008A9020008A902000823
:10011000A9020008A9020008A9020008A902000813
:10012000A9020008A9020008A9020008A902000803
:1001300010B5054C237833B9044B13B10448AFF321
:1001400000800123237010BD00000020000000008B
:10015000F402000808B5034B1BB103490348AFF391
:10016000008008BD0000000004000020F402000828
:1001700080B483B000AF244B1B68234A43F00403D0
:100180001360214B1B68204A43F0010313601F4B8F
:100190001A681E491E4B13430B601E4B1B681D4AF9
:1001A00043F0010313601C4B1B681B4A43F001031F
:1001B00013601A4B194A1B681360194B1B68184AC5
:1001C00043F040031360174B1B68164A43F4005377
:1001D000136000237B6002E07B6801337B607B68F7
:1001E000114A9342F8DD0F4B1B680E4A23F400536B
:1001F000136000233B6002E03B6801333B603B68D7
:10020000094A9342F8DDDEE7181002400408014075
:1002100004002020000401400804014014000140B3
:1002200000E100E00C080140C0C62D0080B400AF22
:10023000074B1B68064A83F400431360054B1B6899
:10024000044A43F00103136000BFBD4680BC704701
:100250000C080140140401400D488546AFF30080AE
:100260000C480D490D4A002302E0D458C450043311
:10027000C4188C42F9D30A4A0A4C002301E01360E7
:100280000432A242FBD300F011F8FFF771FFFEE742
:1002900000280020000000200000002014030008B7
:1002A000000000201C000020FEE7000070B50025C3
:1002B0000C4E0D4CA41BA410A54209D100F01AF855
:1002C00000250A4E0A4CA41BA410A54205D170BDFE
:1002D00056F8253098470135EEE756F8253098470F
:1002E0000135F2E70C0300080C0300080C030008BA
:1002F00010030008F8B500BFF8BC08BC9E46704764
:0C030000F8B500BFF8BC08BC9E46704772
:04030C00550100088F
:0403100031010008AF
:040000050800025994
:00000001FF
