:100000000C9434000C9446000C9446000C9446006A
:100010000C9446000C9446000C9446000C94460048
:100020000C9446000C9446000C9446000C94A000DE
:100030000C9446000C94C7000C9446000C944600A7
:100040000C9446000C9446000C9446000C94460018
:100050000C9446000C9446000C9446000C94460008
:100060000C9446000C94460011241FBECFEFD8E03C
:10007000DEBFCDBF21E0A0E0B1E001C01D92A43001
:10008000B207E1F70E945F000C94EE000C940000B0
:1000900085B1886085B9089585B1877F85B9089550
:1000A0000E94890088E490E090930301809302010C
:1000B0008CE490E0909301018093000108958FEF0C
:1000C00084B90E945000C0E0D0E00DC08C2F0E9487
:1000D0009A002FEF8AE693E0215080409040E1F7AC
:1000E00000C000002F96CB3FD10584F3CAEFD0E0CB
:1000F0000DC08C2F0E949A002FEF8AE693E02150CA
:1001000080409040E1F700C000002F97DD238CF77E
:10011000DACF7894E0E8F0E0808181608083EFE6D8
:10012000F0E0808183608083E1E8F0E080818A6094
:100130008083089590E090938900809388000895CB
:100140001F920F920FB60F9211242F933F934F934C
:100150005F936F937F938F939F93AF93BF93EF932F
:10016000FF93E0910001F09101010995FF91EF915A
:10017000BF91AF919F918F917F916F915F914F91BF
:100180003F912F910F900FBE0F901F9018951F92C7
:100190000F920FB60F9211242F933F934F935F93BB
:1001A0006F937F938F939F93AF93BF93EF93FF933F
:1001B000E0910201F09103010995FF91EF91BF9148
:1001C000AF919F918F917F916F915F914F913F91EF
:1001D0002F910F900FBE0F901F901895F894FFCF9E
:00000001FF
