S00B00006170702E73726563D8
S11300000C942A000C943C000C943C000C943C008E
S11300100C943C000C943C000C943C000C943C006C
S11300200C943C000C943C000C943C000C943C005C
S11300300C943C000C943C000C943C000C943C004C
S11300400C943C000C943C000C943C000C943C003C
S11300500C943C0011241FBECFE5D8E0DEBFCDBF19
S113006020E0A0E6B0E001C01D92A236B207E1F79D
S11300700E946D000C944B010C9400008FB9779B87
S1130080FECF0895CF93C62F98B39F7E98BB0E944E
S11300903E008C2F0E943E0088B3806188BBCF91C4
S11300A008958AB188618AB983E389B9089520E003
S11300B011C05F9BFECF8CB18D3051F0E22FF0E088
S11300C0E05AFF4F805380839F5F2F5F01C090E011
S11300D0923078F32630D8F308958FEF87BB81BB35
S11300E00E94510080E58DB96FEF89E00E944200C3
S11300F065E08BE00E94420061E08CE00E944200D7
S113010063E08AE00E9442000E945700E0E6F0E0CB
S113011084811581880F982F990F990F890F180FD3
S11301208281D380880F982F990F990F890FD80E49
S11301308081E180880F982F990F990F890FE80E1D
S11301401C3308F01BE32BE32D1520F40F2EFBE3E7
S1130150DF2EF02D87E18E1520F40F2EF7E1EF2E20
S1130160F02DF12CC12CB12C72C0CDECDC9FC12D33
S11301701124C695C695C6956C2F85E00E94420051
S1130180CC0F8C2F880F880FC80F6D2F6C1B86E047
S11301900E9442009FE32DE083E091502040804084
S11301A0E1F700C000001D130CC0D0120AC0EF100C
S11301B008C088B3826088BBCC24C394BB24B394A6
S11301C005C0DF5F01C0D0E0DC3378F291E0B916FE
S11301D029F10B3349F460E083E00E94420060E0BF
S11301E084E00E9442001AC00F5FCDEC0C9FC12D29
S11301F01124C695C695C6956C2F83E00E944200D3
S1130200CC0F8C2F880F880FC80F602F6C1B84E0D5
S11302100E94420001C000E00C33A8F221E0B216B3
S1130220C9F0F394CDECFC9EC12D1124C695C6955E
S1130230C6956C2F81E00E944200CC0F8C2F880F52
S1130240880FC80F6F2D6C1B82E00E94420087E16B
S11302508F1508F791E0C91257CFB09BFECF88B332
S11302608D7F88BB60E081E00E94420060E082E014
S11302700E94420060E083E00E94420060E084E06B
S11302800E94420060E085E00E94420060E086E057
S10D02900E94420039CFF894FFCF1A
S9030000FC
