S01700004763634170706C69636174696F6E312E737265635B
S11300000C942A000C9471000C9493000C94B50089
S11300100C9434000C9434000C9434000C9434008C
S11300200C9434000C9434000C9434000C9434007C
S11300300C9434000C9434000C9434000C9434006C
S11300400C9434000C9434000C9434000C9434005C
S11300500C94340011241FBECFE5D8E0DEBFCDBF21
S11300600E9436000C94D7000C9400008AB39BB312
S113007081609BBB8ABB8AB39BB382609BBB8ABBF8
S11300808AB39BB384609BBB8ABB8AB39BB38860EF
S11300909BBB8ABB85B7896085BF84B7806484BFF6
S11300A08BB7806E8BBF8FB780688FBF8BB39CB3C9
S11300B088609CBB8BBB80E090E001C001968133DB
S11300C025E79207DCF38BB39CB3807F9CBB8BBB8F
S11300D080E090E001C00196813325E79207DCF3CC
S11300E0E5CF1F920F920FB60F9211242F938F9387
S11300F09F938BB39CB381609CBB8BBB80E090E0EF
S113010001C00196813325E79207DCF38BB39CB3DE
S11301108E7F9CBB8BBB9F918F912F910F900FBEB5
S11301200F901F9018951F920F920FB60F921124E3
S11301302F938F939F938BB39CB382609CBB8BBB99
S113014080E090E001C00196813325E79207DCF35B
S11301508BB39CB38C7F9CBB8BBB9F918F912F9156
S11301600F900FBE0F901F9018951F920F920FB60D
S11301700F9211242F938F939F938BB39CB384601E
S11301809CBB8BBB80E090E001C00196813325E7E6
S11301909207DCF38BB39CB3887F9CBB8BBB9F9192
S11301A08F912F910F900FBE0F901F901895F89478
S10501B0FFCF7B
S9030000FC
